S01800006275696C642F6D6963617A2F6D61696E2E73726563E5
S11300000C9449000C941C040C9426040C943004A5
S11300100C943A040C9444040C944E040C945A0624
S11300200C9458040C9468000C9468000C94800A96
S11300300C942D0E0C94E6030C94FC030C946204B3
S11300400C94D5030C94C70D0C9468000C946800B0
S11300500C9468000C9468000C9468000C9468007C
S11300600C94F1030C9468000C9468000C946800E0
S11300700C9468000C9468000C9468000C9468005C
S11300800C9468000C9468000C94680000081C1818
S1130090141011241FBECFEFD0E1DEBFCDBF11E09D
S11300A0A0E0B1E0E8E8FDE200E00BBF02C0079089
S11300B00D92AE30B107D9F712E0AEE0B1E001C065
S11300C01D92A833B107E1F70E9471130C94C31673
S11300D00C9400008FB7F894992708958FBF089562
S11300E08FB7F89499272BB331E023272BBB8FBF0D
S11300F00895282F9FB7F894662349F0E82FFF2727
S1130100EA53FE4F8081882311F021E006C0E22FDC
S1130110FF27EA53FE4F608320E0892F99278FBF82
S1130120822F99270895E82F8FB7F894282F332723
S113013090E0FF27EA53FE4F8081861709F491E08F
S11301402FBF892F99270895882311F06E9A089557
S11301506E980895882311F06F9A08956F98089502
S113016080E00E94A400BA9ABB98B99A6C9A80E085
S11301700E94AA00709A6B986A98689881E00E941D
S1130180A4000895282F9FB7F894E82FFF27E45977
S1130190FE4F80818F3F81F4E0913602E21771F4C3
S11301A00BC020932A0204C0FF27E459FE4F20838A
S11301B02093360220E007C025E005C080912A0282
S11301C08F3F91F7EECF892F99278FBF822F9927E1
S11301D008951F93182F81E00E94A4001FB9779BF4
S11301E0FECF8FB199271F9108958F929F92AF925E
S11301F0BF92CF92DF92EF92FF920F931F93CF9310
S1130200DF938FB7F8949927C0903102D0903202CF
S11302108090BF019090C001C091A701D091A80126
S113022020911D0130911E019AE0A92EB12CAC0E33
S1130230BD1E2A153B0508F459018FBF7401EC0E4D
S1130240FD1E86010C0F1D1F14C0C114D10419F02A
S1130250F801808101C080E00E94E90081149104CA
S113026011F0F701808321960894E11CF11C0F5FC3
S11302701F4FC5010197C817D90738F381E00E94C1
S1130280AA009FB7F894C114D10431F0CC0EDD1E3E
S1130290F60180818FB901C01FB8D093A801C09323
S11302A0A701892F99278FBF80E090E0DF91CF913C
S11302B01F910F91FF90EF90DF90CF90BF90AF9080
S11302C09F908F9008952FB7F894332750931E0171
S11302D040931D0190933202809331027093C001C8
S11302E06093BF011092A8011092A7012FBF452B64
S11302F029F08FB10E94F5009927089589E00E94A2
S1130300C20080E090E008958FB7F8949927109286
S1130310C8018FBF089580E880936A011092860116
S113032010922D0210922902109282010895CF9307
S1130330DF93FC0115A6DC019E96ED011B821A8257
S1130340198280E886A7DF91CF9108952F923F927A
S11303504F925F926F927F928F929F92AF92BF92D1
S1130360CF92DF92EF92FF920F931F93CF93DF937D
S1130370CDB7DEB728970FB6F894DEBF0FBECDBF5A
S113038020908C0130908D0140908E0150908F010F
S11303906624772488244EE4A42E33E8B32ECC2498
S11303A0DD24EE24FF2400E010E0222D332D442D23
S11303B0552D662D772D882D90E00E94B214298347
S11303C03A834B835C836D837E838F839887822EED
S11303D0932EA42EB52E2401350100E20E94B015FF
S11303E0A22EB32EC42ED52EC301B20196958795A5
S11303F0779567956A0D7B1D8C1D9D1D97FF05C024
S11304009F776F5F7F4F8F4F9F4F60938C017093E7
S11304108D0180938E0190938F0128960FB6F894E6
S1130420DEBF0FBECDBFDF91CF911F910F91FF9023
S1130430EF90DF90CF90BF90AF909F908F907F9080
S11304406F905F904F903F902F9008958FB7F894DE
S11304506091AB017091AC012CB53DB506B602FEBE
S113046004C06F5F7F4F2CB53DB599278FBF882798
S11304709927CB017727662744275527622B732BAF
S1130480842B952B0895EF92FF920F931F930E9454
S113049026027B018C0120919601309197014091B5
S11304A09801509199018091910190919201A091AC
S11304B09301B0919401820F931FA41FB51FE216FC
S11304C0F3060407150730F082179307A407B5074E
S11304D058F005C082179307A407B507E0F5E8169E
S11304E0F9060A071B07B8F59C01AD012E193F094F
S11304F0400B510B213060E8360760E0460760E0AE
S1130500560768F180E090E8A0E0B0E0E80EF91E3C
S11305100A1F1B1FE0929601F09297010093980125
S11305201093990180E090E8AFEFBFEFE80EF91E59
S11305300A1F1B1F20503048404050402093910117
S113054030939201409393015093940120E030E85A
S113055040E050E014C020E030E040E050E0809300
S1130560960190939701A0939801B09399011092EA
S11305709101109292011092930110929401A90199
S1130580B7012CB53DB5C9018E199F09039684178F
S1130590950720F0B9016D5F7F4F02C0640F751F8E
S11305A06115710511F461E070E0615070407BBD2C
S11305B06ABD80E186BF87B7806187BF1F910F91B5
S11305C0FF90EF9008950F931F930FB7F89411279E
S11305D06093960170939701809398019093990189
S11305E0209391013093920140939301509394018D
S11305F00E9443020FBF1F910F91089597B79F7DEB
S113060097BF90E296BF882319F08EB5806402C02C
S11306108EB58F7B8EBD87B7806287BF80E090E008
S113062008957FB7F89462B7209120013091210199
S1130630409122015091230106B601FE0FC081B7FB
S113064092B7280F311D411D511D2F5F3F4F4F4F52
S11306505F4F290F311D411D511D04C0260F311D4F
S1130660411D511D872F99278FBFCA01B9010895D4
S1130670DF92EF92FF920F931F938FB7F894282F76
S11306803327D22E91B782B746B7981711F041FF9E
S113069002C02FBF6AC08091A6018823E1F10E94A5
S11306A01103E090C201F090C3010091C4011091C4
S11306B0C501209166013091670140916801509114
S11306C069016E197F09800B910B62177307840708
S11306D0950720F01092A60171E01EC02E0D3F1D5B
S11306E0401F511F8091200190912101A09122016E
S11306F0B0912301281B390B4A0B5B0B273E3105B4
S11307004105510540F4822F223010F070E005C0FD
S113071070E082E002C070E086EE682F615000B69F
S113072001FCFDCF82B7681709F46F5F20912001A7
S1130730309121014091220150912301DA01C90134
S11307400196A11DB11D860F911DA11DB11D82171A
S11307509307A407B50710F4622F609561BFDFBE4D
S1130760772319F080E00E94C2001F910F91FF903F
S1130770EF90DF900895AFB7F894BB27E1E0E093E2
S1130780A6016093C2017093C3018093C401909346
S1130790C50120936601309367014093680150932B
S11307A06901AFBF0E94380308951F920F920FB6DC
S11307B00F9211248F9383B783BF00B600FCFDCF43
S11307C08F910F900FBE0F901F90189578941F92E1
S11307D00F920FB60F9211240F900FBE0F901F901F
S11307E0189578941F920F920FB60F9211240F90C0
S11307F00FBE0F901F90189578941F920F920FB60A
S11308000F9211242F933F938F939F932FB7F894B4
S113081033278091AB019091AC0101969093AC0188
S11308208093AB012FBF9F918F913F912F910F9098
S11308300FBE0F901F9018951F920F920FB60F9234
S113084011240F900FBE0F901F9018951F920F92B6
S11308500FB60F9211240F900FBE0F901F90189592
S11308601F920F920FB60F9211240F900FBE0F908C
S11308701F9018951F920F920FB60F9211240F908C
S11308800FBE0F901F9018951F920F920FB60F92E4
S113089011240F900FBE0F901F9018951F920F9266
S11308A00FB60F9211240F900FBE0F901F90189542
S11308B01F920F920FB60F9211240F900FBE0F903C
S11308C01F9018951F920F920FB60F9211242F9319
S11308D03F934F935F936F937F938F939F93AF93C4
S11308E0BF93EF93FF9383B783BF00B600FCFDCFA4
S11308F081B799270196AA27BB272091200130911F
S113090021014091220150912301280F391F4A1FD0
S11309105B1F2093200130932101409322015093C7
S1130920230178940E943803FF91EF91BF91AF9116
S11309309F918F917F916F915F914F913F912F91F3
S11309400F900FBE0F901F9018950F931F93CF9386
S1130950DF93182F8FB7F894C82FDD270C2F61E091
S113096080E00E947900882321F0CFBF85E090E0E9
S113097024C0809105018823A1F480911301823061
S113098081F409C082E080931301109205010E9452
S1130990B000B89AC0981093020180E00FBF992765
S11309A00CC080911301882369F38FB7F8949927B9
S11309B01092C6018FBF81E0F1CFDF91CF911F91DB
S11309C00F910895CF92DF92EF92FF920F931F93AE
S11309D0CFB6F894DD240E94A601DC01CB0166E4C5
S11309E070E00E943F166BE0E62EF12CE80EF91E33
S11309F0F0923402E09233020E942602002711276B
S1130A00A80197010E94E302CFBE1F910F91FF90AE
S1130A10EF90DF90CF9008950F931F93182F0FB787
S1130A20F89461E080E00E947900882371F51093C6
S1130A300201809105018823A9F580911301823078
S1130A4089F588E00CC00E94B000809113018823CE
S1130A5049F481E080931301109283018AE00E949B
S1130A60C2002AC0809195018F3F31F5E0910401C5
S1130A70EE2311F11CC01092030104C0FF27EB56B2
S1130A80FE4F10821092040117C081E090E002C072
S1130A90880F991F1A95E2F720911201282B2093B1
S1130AA012010AC0809113018823E1F6CCCF809112
S1130AB003018F3F19F7DFCF802F99278FBF80E085
S1130AC090E01F910F9108951F9383E00E94A50465
S1130AD09927182F882319F083E00E940C05812F91
S1130AE099271F910895CF92DF92EF92FF920F936F
S1130AF01F93CF93DF938C01F62E6A01E22E8FB7FA
S1130B00F894C82FDD2760E080E00E9493008823DA
S1130B1021F0CFBF80E090E01EC0CFBF0F0D111DAC
S1130B20802F80680E94E900F82E16950795802F83
S1130B30807C0E94E9000E2D0AC0EE2DFF27E01BE9
S1130B40F109EC0DFD1D80810E94E9000150002394
S1130B50A1F78F2D9927DF91CF911F910F91FF90CE
S1130B60EF90DF90CF900895CF93DF93CDB7DEB7AA
S1130B7024970FB6F894DEBF0FBECDBF8FB7F8949D
S1130B80992720918701309188012983232F3327C6
S1130B902A8320919A0130919B012B83232F3327A1
S1130BA02C838FBF24E0AE014F5F5F4F60E088E687
S1130BB091E00E94730524960FB6F894DEBF0FBE31
S1130BC0CDBFDF91CF9108951F93CF93DF93182F5B
S1130BD08FB7F894C82FDD2760E080E00E9493006F
S1130BE0882321F0CFBF80E090E005C0CFBF812FE4
S1130BF00E94E9009927DF91CF911F910895EF9208
S1130C00FF920F931F93CF93DF93182F7B01042F31
S1130C108FB7F894C82FDD2760E080E00E9493002E
S1130C20882321F0CFBF80E090E014C0CFBF1064D0
S1130C30812F992790939F0180939E010E94E90040
S1130C40182F402F5527B70180E090E00E946301E0
S1130C50812F9927DF91CF911F910F91FF90EF90F2
S1130C600895C09860911B0170911C0141E08FE3CD
S1130C700E94FF05089582E090E090937D018093A7
S1130C807C0181E08093860120E030E080910201C4
S1130C90843011F421E030E0232B29F484E00E9415
S1130CA0A504882319F40E943106089584E00E9463
S1130CB00C0508951F920F920FB60F9211242F93D3
S1130CC03F934F935F936F937F938F939F93AF93D0
S1130CD0BF93EF93FF9380917C0190917D010197E5
S1130CE049F482E090E090937D0180937C010E941E
S1130CF03B0605C0809182018F5F80938201FF9142
S1130D00EF91BF91AF919F918F917F916F915F917F
S1130D104F913F912F910F900FBE0F901F901895F8
S1130D201F9380911201882309F04BC01091020196
S1130D301F3F09F046C060E00E949300882309F435
S1130D4040C081E08093CF0180916B018823E1F161
S1130D501092CF0185E090E045C0923069F5C09AC9
S1130D608091030120E030E08F3F11F421E030E076
S1130D70232BE9F4109305018F3F19F42FEF30E092
S1130D800DC0282F3327F901EB56FE4F8081809345
S1130D9003018F3F11F41093040110832093830106
S1130DA081E0809313018AE00E94C20005C0109381
S1130DB005011092130111C080911301882369F079
S1130DC00FC081E090E00EC0809105019091130165
S1130DD0882319F2923021F0EFCF80E00E94A40022
S1130DE080E090E01F9108951F93CF93DF939FB706
S1130DF0F894C92FDD271C2F90910201981721F038
S1130E00CFBF81E090E03AC08FEF80930201309130
S1130E1012013323F1F48FB7F89499271092C60185
S1130E208FBF0E949006CFBF11C02093020181E0C2
S1130E3090E002C0880F991F4A95E2F78095382305
S1130E403093120188E00E94C2001FBF80E090E04E
S1130E5015C080E065E0E32FFF270E943316292F99
S1130E60492F5527CF01042E02C0959587950A94E2
S1130E70E2F780FDDACF822F8F5FEFCFDF91CF9142
S1130E801F9108951F93CF93DF938FB7F894C82FC2
S1130E90DD271C2F80917C0190917D01892B29F401
S1130EA084E00E94F406CFBF1EC010928601809198
S1130EB08201882311F0B79904C00E9908C08823D1
S1130EC019F08150809382010E943B060BC081E09F
S1130ED090E090937D0180937C011092820184E0E4
S1130EE00E94F4061FBFDF91CF911F9108950E94C5
S1130EF08B01C09AC09888E00E94E40588E00E94B3
S1130F00E405C09A84E00E94F4060E944207089512
S1130F10FF920F931F93CF93DF93F82E8B018FB71C
S1130F20F894C82FDD2760E080E00E9493008823B6
S1130F3021F0CFBF80E090E00CC0CFBF8F2D0E9486
S1130F40E900812F99270E94E900802F0E94E9007F
S1130F509927DF91CF911F910F91FF9008951F93CF
S1130F601FB7F89480918101882319F460E070E040
S1130F7009C060E080913002882309F461E081E0D7
S1130F806827772780918901882319F480E090E00D
S1130F900AC090E08091CD01882309F491E081E0BA
S1130FA09827892F9927762F6627770F770F770F42
S1130FB0B4E0880F991FBA95E1F7826E9262682BAC
S1130FC0792B81E10E948807812F99278FBF1F9178
S1130FD008958FB7F89499276091CE018FBF85E06B
S1130FE0689FB0011124625D7E4F706488E10E94A5
S1130FF088070895EF92FF921F93CF93DF93E090B9
S11310008A01F0908B01F70182A59927182F882374
S113101009F41FE1C09880918001811749F0612F84
S113102077276F717070606E706885E10E94880721
S113103010938001F70110818FB7F894C82FDD2732
S113104060E080E00E949300882311F0CFBF12C0BB
S1131050CFBF8EE390E090939F0180939E018EE337
S11310600E94E9001150412F552760E070E0C7014C
S11310700E946301DF91CF911F91FF90EF9008953B
S1131080FF920F931F93CF93DF93EC01F62E61E051
S113109082E00E947900882319F085E090E069C01D
S11310A08091D0018F5F8093D00181508B838FB763
S11310B0F894082F112762E081E00E9493008823AE
S11310C029F40FBF0E94840181E052C08FB7F894C5
S11310D0992724E02093C7018FBFD093A501C09323
S11310E0A4010FBF8DE0F80EFE01F19289819927CA
S11310F080729070898311828981992781649868AC
S11311008983892F992781831CA618A619A619AA51
S113111018AA1FA680E88EA761E06093CA014091D7
S1131120A4015091A5018FB7F894282F33278091FB
S11311301401909115018830910511F0019711F077
S11311402FBF15C082E090E09093150180931401A5
S11311506093370250938B0140938A0110921F01D0
S11311602FBF0E946405882311F40E94FA0780E0CF
S11311709927DF91CF911F910F91FF900895FA0164
S1131180422F2D3118F082E090E008958387668322
S1131190872F992787832FB7F89433278091870166
S11311A0909188012FBF8483892F992785832FB736
S11311B0F894332780910601909107012FBF80870F
S11311C0892F9927818780910901882369F01092DA
S11311D009018FE38287642FCF010E944008992779
S11311E0282F8823A9F417C0842F99279093A3014B
S11311F08093A201F0931901E09318018CE00E94FE
S1131200C20080910901882349F489E090E008959F
S11312108FEF80930901822F9927089510929001EE
S113122080E090E00895AF92BF92CF92DF92EF9268
S1131230FF920F931F935B016C016091B50161FFF5
S11312401FC02091AD013091AE014091AF0150918A
S1131250B001E090B101F090B2010091B30110919E
S1131260B401D601C501821B930BA40BB50B8E15DB
S11312709F05A007B10720F0EDEAF1E090E021C05E
S1131280E6EBF1E06091BE0161FF6DC02091B60113
S11312903091B7014091B8015091B901E090BA0181
S11312A0F090BB010091BC011091BD01A21AB30AD8
S11312B0C40AD50AAE14BF04C006D10608F453C04C
S11312C091E060FF04C080858D7F808708C02E0D6B
S11312D03F1D401F511F2083318342835383992331
S11312E009F041C080911A018823E9F58091CB016E
S11312F09091CC0180933F01892F992780933E01DF
S113130042E351E08FEF809338018093390181E10A
S113131080933D018091A9019091AA01892B19F52F
S11313205093AA014093A9018FE0809332018091E8
S11313300C018823A9F010920C0122E06FEF7FEFDB
S113134081E10E94BF089927282F882349F081E072
S113135080930C011092AA011092A901222319F47E
S113136081E080931A0181E00E94C2001F910F91D5
S1131370FF90EF90DF90CF90BF90AF9008951F93B0
S1131380CF93DF93182FEB01E82FFF27EE0FFF1FFA
S1131390E755FE4F1182108210920C01E091A901D1
S11313A0F091AA01309721F080912E0280FF11C0A4
S11313B081E080930C0103C08FE00E94C2001123DE
S11313C0D1F4C253D140B9F410921A010E947000B2
S11313D012C020812D50332767817727762F662707
S11313E086819927682B792BAF0183850E94BF08DA
S11313F0882329F3E1CFDF91CF911F9108959B01B9
S113140080910C01882349F46091A9017091AA018B
S11314106217730711F40E94BF0908951F93182FD0
S113142081E090E0909315018093140110926B0178
S11314300E9490068FB7F894992710930E018FBFDE
S113144084E00E94C2001F9108951F93CF93DF93FD
S11314508FB7F894C82FDD271C2F80911401909129
S113146015010897C9F489E00E94E40583E00E940D
S1131470F406C09A81E090E09093150180931401E2
S11314808FB7F894992723E020930E018FBF84E04F
S11314900E94C200CFBF30C0C09880913702882319
S11314A011F085E001C084E00E94E40583FD09C0D9
S11314B080E00E94E40583FF04C085E090E020E022
S11314C003C083E090E021E0909315018093140120
S11314D0C09A1FBF222341F010921F0183E00E9493
S11314E0F4060E94E20408C00E94260220E431E0CF
S11314F040E050E00E94E302DF91CF911F910895F4
S113150078941F920F920FB60F9211242F923F924C
S11315104F925F926F927F928F929F92AF92BF92FF
S1131520CF92DF92EF92FF920F931F932F933F93EB
S11315304F935F936F937F938F939F93AF93BF93D7
S1131540CF93DF93EF93FF93CCB5DDB580E286BFF5
S11315508FB7F894282E0E9426029E01261B370B73
S11315602901662457FC6094762C460E571E681E8B
S1131570791E80911401909115018530910521F017
S1131580069709F0E0C0BFC086E090E09093150193
S11315908093140131E0332E3092850110921601AC
S11315A080E00E94FE02E0918A01F0918B0141AA41
S11315B0BB27A72D962D852D80ABC301AA27BB275A
S11315C087A7872D9927AA27BB2786A7E0918A0199
S11315D0F0918B0185A5882309F484C0608165504E
S11315E077274F01860E971EF4012081E1808281C6
S11315F0A3809927AA27BB27BA2FA92F982F88271A
S1131600332744275527522F442733272227FF24E3
S1131610002711278701FF24EE242E293F29402B80
S1131620512BBB24CC24DD242A293B294C295D29B8
S1131630822B932BA42BB52B84199509A609B709E2
S11316408383292F3A2F4B2F552722839D0144272B
S1131650552721838B2F9927AA27BB278083C098DE
S113166024E0A40180E090E00E947305C09AF40194
S11316702081E1808281A3809927AA27BB27BA2FE2
S1131680A92F982F8827332744275527522F4427DB
S113169033272227FF24002711278701FF24EE2464
S11316A02E293F29402B512BBB24CC24DD242A296D
S11316B03B294C295D29822B932BA42BB52B840D1C
S11316C0951DA61DB71D8383292F3A2F4B2F552710
S11316D022839D014427552721838B2F9927AA27ED
S11316E0BB278083E0918A01F0918B01818185FF82
S11316F002C030926B0183E00E94F40687B78F7EAC
S113170087BF84997AC01092850181E00E94FE020D
S1131710E0918A01F0918B01818185FF0FC087E000
S113172090E090931501809314010E94260220E01A
S113173031E040E050E00E94E30203C080E00E94F8
S11317400E0A849B5AC080911601882391F58091DA
S11317508501882371F511E0109385010E94FE0232
S113176080B320912902283098F4E0912D02E20FF1
S1131770FF27E770F070EE0FFF1FEE0FFF1FEB5215
S1131780FE4F40825182628273822F5F209329022E
S113179010931601D093A101C093A00184992DC088
S11317A0992724E0969587952A95E1F7182F1170CB
S11317B001C010E0809185018130F9F41092850117
S11317C00E94FE02109216011123B9F48091A00127
S11317D09091A101C81BD90B2A9778F48091290212
S11317E0882319F081508093290280918A01909175
S11317F08B01009711F00E9497012FBEFF91EF918A
S1131800DF91CF91BF91AF919F918F917F916F9114
S11318105F914F913F912F911F910F91FF90EF9006
S1131820DF90CF90BF90AF909F908F907F906F90FC
S11318305F904F903F902F900F900FBE0F901F908E
S11318401895EF92FF920F931F93CF93DF938B0121
S113185080919E0190919F0186FF40C18F7B8F33C1
S113186009F08EC1C0911B01D0911C015881509385
S11318707E0180917C0190917D018530910509F470
S113188043C08630910509F48AC0029709F01FC14C
S113189085E090E090937D0180937C0140916A0102
S11318A0852F99270196242F3327281739074CF1C0
S11318B0B79906C00E9904C0451B415040936A0174
S11318C040917E014A32E8F44423A1F0BE016F5FE7
S11318D07F4F483018F047E050E007C086E090E0C2
S11318E090937D0180937C01552780E090E00E94D5
S11318F0630146C110928601C09A84E00E94F406F6
S1131900E3C00E9477073CC186E090E090937D019C
S113191080937C0180918901882309F439C08091E6
S1131920CD018823A9F5898185FF32C08F814E813D
S11319302FB7F894332760919A0170919B012FBFC0
S11319409927982F88275527842B952B8617970737
S113195059F08F812E819927982F88273327822B3E
S1131960932B8F5F9F4FA1F489818770813081F41D
S1131970C09AC0988AE00E94E405C09AC098409139
S11319807E0147502896BE018FE30E94FF05F8C0F0
S113199040917E01475055272896BE01A6CFC09A94
S11319A080918201882339F484E00E94F4068091B6
S11319B08201882311F0B7990AC00E9B08C0909148
S11319C02902992321F080917E018B3038F4809193
S11319D01B0190911C010E9497013DC0913001F5BB
S11319E0E0912D02FF27EE0FFF1FEE0FFF1FEB52BA
S11319F0FE4F2081318142815381E0911B01F0919E
S1131A001C0121ABBB27A52F942F832F80ABCA01C8
S1131A10AA27BB2787A7252F33274427552726A77F
S1131A2080912D029927019668E070E00E94531678
S1131A3080932D028091290281508093290288236A
S1131A4051F080911B0190911C010E94970110920A
S1131A502D021092290280917E01FE01E80FF11DF2
S1131A60808187FF31C0012B79F169816770E09132
S1131A701B01F0911C01623019F5A0918A01B0910B
S1131A808B01109709F1809114019091150107972A
S1131A90D9F4ED019B8183819817B1F487B78F7EC8
S1131AA087BF908181E08CA7E90FF11D8291319667
S1131AB088A780818F7789A780E00E940E0A04C0DE
S1131AC0613011F48BE02AC00E94420759C0109281
S1131AD08601C09A84E00E94F40652C08E3309F055
S1131AE04FC0C09A80911401909115010897C9F4D0
S1131AF0C09889E00E94E405C09A83E00E94F4063D
S1131B0081E090E090931501809314018FB7F894CD
S1131B10992723E020930E018FBF84E00E94C20026
S1131B202FC080913702882349F484E090E0909399
S1131B301501809314010E94250A22C083E00E94AB
S1131B40F40683E090E090931501809314010E94C1
S1131B50A601DC01CB0166E371E00E943F164BE075
S1131B60E42EF12CE80EF91EF0923101E0923001DE
S1131B700E94260200271127A80197010E94E30270
S1131B80DF91CF911F910F91FF90EF9008951F92D5
S1131B900F920FB60F9211242F933F934F935F939D
S1131BA06F937F938F939F93AF93BF93EF93FF9321
S1131BB02FB1E091BF01F091C001309739F08091CD
S1131BC0A7019091A801E80FF91F20838091A70134
S1131BD09091A80101969093A8018093A70180E0B9
S1131BE00E94AA0040911D0150911E018091A701FD
S1131BF09091A8018417950718F40E94F5001CC061
S1131C006091BF017091C0018091310290913202C4
S1131C101092C0011092BF01109232021092310250
S1131C2010921E0110921D011092A8011092A7019A
S1131C302FB120E00E94210CFF91EF91BF91AF9151
S1131C409F918F917F916F915F914F913F912F91D0
S1131C500F900FBE0F901F90189578941F920F92BB
S1131C600FB60F9211241F932F933F934F935F93BB
S1131C706F937F938F939F93AF93BF93EF93FF9350
S1131C8087B78F7E87BF78941FB7F89480919101AE
S1131C9090919201A0919301B09194010097A105B4
S1131CA0B10509F051C0809114019091150185305E
S1131CB0910561F18630910530F48330910549F046
S1131CC0049781F51AC087309105F1F0089751F512
S1131CD014C0869B0FC084E090E09093150180931C
S1131CE014010E94260227E030E040E050E00E9408
S1131CF0E30218C00E94E20415C00E946405882310
S1131D0089F40E94250A0EC080E00AC089E00E947E
S1131D10E40581E00E94FE0283E00E94F40687E06D
S1131D200E940E0A80910F0190911001019771F4A5
S1131D3082E090E09093100180930F01DE98DE9A88
S1131D4080E00E940C0502C00E944302812F992763
S1131D508FBFFF91EF91BF91AF919F918F917F9131
S1131D606F915F914F913F912F911F910F900FBEF3
S1131D700F901F90189561E081E00E9479008823FC
S1131D80E9F48FB7F894282F332780910F019091AD
S1131D901001892B11F02FBF20C081E090E09093B7
S1131DA0100180930F012FBFDD9A0E94260224E1C7
S1131DB030E040E050E00E94E3020FC062E081E0C6
S1131DC00E949300882319F089E090E0089561E06F
S1131DD081E00E949300882319F080E090E0089548
S1131DE085E090E00895AF92BF92CF92DF92EF9298
S1131DF0FF920F931F93CF93DF93873009F4C7C1EA
S1131E00883098F4833009F44CC1843038F481303C
S1131E1009F45EC0823008F0DBC027C0853009F4C5
S1131E2094C1863008F0ACC142C18B3009F4D8C2E9
S1131E308C3038F4893009F49BC28A3008F0BCC273
S1131E40E1C18D3009F4D8C38D3008F4ABC38E30B2
S1131E5021F08F3009F01DC40BC480912E02882319
S1131E6009F417C440E011E0E0C380917F018823A6
S1131E7061F52091D1013091D2014091D30150916B
S1131E80D401EFB7F894FF276091C2017091C301A8
S1131E908091C4019091C501E0906601F0906701C2
S1131EA000916801109169016E0D7F1D801F911FC3
S1131EB0EFBF2093D1013093D2014093D3015093CB
S1131EC0D40110927F010E94BB030E9411036DC0D4
S1131ED00E9411035B016C018FB7F894992710924B
S1131EE0A6018FBF8091B50181FF25C08091AD010E
S1131EF09091AE01A091AF01B091B001A6019501FE
S1131F00281B390B4A0B5B0BE090B101F090B20136
S1131F100091B3011091B401E21AF30A040B150BFA
S1131F203FEFE3163FEFF3063FEF03073FE71307E7
S1131F3011F061E009C06FEFE62E6FEFF62E6FEF40
S1131F40062F6FE7162F60E08091BE0181FF21C04C
S1131F508091B6019091B701A091B801B091B901F7
S1131F60A6019501281B390B4A0B5B0BDA01C90149
S1131F702091BA013091BB014091BC015091BD0147
S1131F80281B390B4A0B5B0B2E153F0540075107E5
S1131F902CF0662309F47DC3A801970112161306D9
S1131FA0140615062CF0C601B5010E94130971C36D
S1131FB02093D1013093D2014093D3015093D401A3
S1131FC081E080937F01C601B5010E94BB0361C318
S1131FD00FB7F894112781E00E94FE0251E0E52E2C
S1131FE0F12CF0921501E092140110921601109256
S1131FF06B01109280010FBF0FB7F89411270E9454
S11320008B01F0927D01E0927C011092860189B7E8
S11320108F7B89BF80E488BF8AB780628ABF8AB712
S11320208F7E8ABF89B7806489BF0FBF8FB7F8944A
S1132030C82FDD2780910F0190911001049719F4A6
S113204083E00E94E405CFBF0FB7F8941127C09A2C
S113205080E00E94F4060FBF8FB7F894992722E01E
S11320602093C7018FBF0E9411036093AD01709349
S1132070AE018093AF019093B00188E893E1A0E0B2
S1132080B0E08093B1019093B201A093B301B093F7
S1132090B4018091B5018E7F82608093B50181E0A7
S11320A0AEC08FB7F89499271092C7016EC08FB74E
S11320B0F8949927F0900E018FBF63E081E00E94AD
S11320C09300882359F10FB7F89411271092150142
S11320D01092140187B78F7E87BF87B78F7D87BF24
S11320E083E00E94F406C09A0FBF0FB7F89411273B
S11320F010927D0110927C010E948B01C09A89B7D5
S11321008F7B89BF0FBF1092100110920F01DE98D0
S1132110DD98DE9A83E00E94C20007C08FB7F8946E
S1132120992722E02093C7018FBFC091A401D091C9
S1132130A5010E9484018A858F3309F0AAC28FEF1A
S1132140809309014F2DBE014FC28FB7F894282FF9
S11321503327122F80913502882309F581E080937B
S1132160350280910F0190911001049721F481E0D0
S11321700E940C0503C086E00E94C2001FBF89C2F2
S11321808FB7F8949927109235028FBF82C28FB708
S1132190F894282F332780911101882311F02FBF41
S11321A078C22FBF80B3992746E0969587954A95C4
S11321B0E1F7182F117090919C0180919D0189176E
S11321C0D9F01917C9F484E090E09093100180933A
S11321D00F018FB7F894992721E0209311018FBF45
S11321E060E070E08DE10E9488070E94B405C09A07
S11321F0C09882E00E94C20010939D0187E00E9473
S1132200C20047C28FB7F8949927109102018FBF7B
S1132210123009F460C0133030F4112359F0113036
S113222009F037C243C0133009F46FC0143009F009
S113223030C29BC0C0988FB7F894C82FDD27809117
S11322400F0190911001029779F583E090E090934B
S1132250100180930F0168E170E08DE10E9488070E
S113226081E080939C011092110180B3992736E09C
S1132270969587953A95E1F78170907080939D01CA
S113228087E00E94C20081E00E94E4056FE772E0EB
S11322908CE10E9488070E94E9070E94AF0766E567
S11322A07AE287E10E948807CFBFF3C1C09886E035
S11322B00E94E4050E94E9070E94AF070E94B4054A
S11322C0C09AC09883E00E94E405C09A81E00E940D
S11322D0F40686E094CFC0988FB7F894C82FDD2712
S11322E060E080E00E949300882311F0CFBF0AC011
S11322F0CFBF83E50E94E90080E00E94E90080E00E
S11323000E94E900C09A82E02DC08FB7F894992703
S1132310209114018FBF243039F0283041F022304D
S113232001F50E94FA07B5C10E94250AB2C1C098FE
S113233089E00E94E405C09A83E00E94F4068FB706
S1132340F894992721E030E030931501209314018B
S11323508FBF8FB7F894992710930E018FBF84E035
S11323604ECF83E00E94F40694C10E94310691C1CD
S11323700FB7F894112740911D0150911E016091EF
S1132380BF017091C001809131029091320210928C
S1132390C0011092BF0110923202109231021092C9
S11323A01E0110921D011092A8011092A70120E0B5
S11323B00E94210C0FBF6DC12FB7F8943327809171
S11323C083018093050182E0809313012FBF8091E4
S11323D00501882309F05DC1B89AC09888E00FCF41
S11323E0A0911B01B0911C011C91FD01E10FF11D95
S11323F08081881F8827881FED018BA780818F77B4
S113240089A73197808188A7E0911B01F0911C0175
S11324108FB7F8949927209181018FBF2223F9F077
S1132420878146812FB7F894332760919A01709180
S11324309B012FBF9927982F88275527842B952BED
S11324408617970761F0878126819927982F882717
S11324503327822B932B8F5F9F4F09F09AC01D3037
S113246008F497C0C0911B01D0911C01898528856F
S11324709927582F44273327422B532B6B818FEFF7
S113248080932F028FB7F894782F20E030E0E4E2B5
S1132490F1E0808191818417950729F48281861760
S11324A031F120932F022F5F3F4F339624303105B3
S11324B081F77FBF90912F023FB7F8949F3F21F09F
S11324C0809117018917A9F420911701822F992768
S11324D0FC01EE0FFF1FE80FF91FEC5DFE4F518367
S11324E0408362832F5F2370209317010EC07FBF48
S11324F04CC0892F9927FC01EE0FFF1FE80FF91F2D
S1132500EC5DFE4F518340836283832F99278FBFF5
S11325108BA5882309F439C08A858F33B1F58F815F
S11325204E812FB7F894332760910601709107010B
S11325302FBF9927982F88275527842B952B8617EB
S1132540970759F08F812E819927982F8827332751
S1132550822B932B8F5F9F4FC1F48B858131A9F41C
S11325601F3089F48DE00E94C200882361F48C85B9
S11325702D859927982F88273327822B932B909387
S1132580CC018093CB0110921A01D0931C01C0930B
S11325901B018FB7F8949927109286018FBF0E9470
S11325A0420777C09091900180910901981709F42E
S11325B070C0909309019923D9F4C0911801D09166
S11325C019016091A2018FE38A87CE010E9440081D
S11325D0482F5527442309F45CC08FEF80930901E9
S11325E060911801709119018B850E94FF0951C0F7
S11325F08FEF809309014DC08091CB019091CC0164
S113260022E08D3B920710F0DA9805C0DA9A31E0A7
S1132610853F930710F0D99804C0D99A8D52914000
S113262010F0D89836C0D89A34C090912E02812FD9
S11326308923C9F0E42FFF27EE0FFF1FE755FE4F54
S11326402081318111821082812F8095982390936B
S11326502E02442341F422533140C1F410921A0152
S11326600E94700013C04F5F483098F4110FDDCF03
S113267080910C01E82FFF27EE0FFF1FE755FE4F57
S11326806081718141E00E94BF0903C0110F41E0E4
S1132690CCCFDF91CF911F910F91FF90EF90DF90FE
S11326A0CF90BF90AF90089580912A028F3FB1F0F0
S11326B0282F3327F901E459FE4F808180932A02A1
S11326C08F3F11F4809336028FEF80832F3F31F0D8
S11326D0822F0E94F30E81E090E0089580E090E064
S11326E008951F931FB7F89440E150E06FEF70E036
S11326F08CE691E00E94BC168FEF80932A028093AF
S1132700360281E08EBD88E080BF83E083BF8CB554
S11327109DB54AE72CB53DB52817390708F4415053
S1132720442311F0C901F6CF92B782B78917E9F3B0
S11327302CB53DB592B782B78917E9F38CB59DB531
S1132740821B930B409675E0969587957A95E1F7F1
S113275090932C0280932B0213BE83B78EBD8EB54B
S113276080BF12BE1DBC1CBC8FEF86BF86B7809392
S11327707C0080B7992787709070892BD1F7D29A03
S1132780D19AD09ADA9AD99AD89A15BA8FEF84BB8B
S1132790D498DC981DBC1CBC87B7846087BF8EB5F9
S11327A0887F84608EBD80E285BF0E945413882395
S11327B0E1F78FEF80938401E4E2F1E08FEF9FEF84
S11327C0918380831282339621E0E033F207C1F7CC
S11327D00E94A6016093D0018091000190910101B3
S11327E00196AA27BB2780938C0190938D01A09317
S11327F08E01B0938F0185EF91E090931C0180933B
S11328001B018E98B89A8C988FEF80939501109243
S1132810C6011092C7011092C8011092C901B89A5A
S1132820D69AD59A8FB7F8949927209106013091BA
S113283007018FBF30939B0120939A018091080177
S1132840992790938801809387018FE18093C10138
S11328508AE18093CE0181E080938101109230025D
S1132860809389011092CD0180B7886080BF8BE08E
S113287083BF86EE81BF87B7826087BF0E9438031B
S11328800E9454138823E1F7812F99278FBF7894EE
S11328900E94BB0E8FB7F894482F552748C087B7BE
S11328A0992783709070892B19F4E5E0F0E013C048
S11328B080B7992787709070892BD1F781B792B729
S11328C0891B8C3030F082B7853F18F4E3E0F0E0E8
S11328D002C0E2E0F0E087B7887BC1F480917D001C
S11328E08B7FA1F46E9912C08AB190919A00892BC2
S11328F0807C61F48091740082FD08C0379B03C022
S113290081E090E005C085E090E002C080E090E0C6
S113291025B78E1708F4E82FFF27E457FF4FE491FB
S1132920237E2062E22BE5BF78948895F894809109
S11329302A028F3F09F4B3CF282F3327F901E45932
S1132940FE4F808180932A028F3F11F480933602D8
S11329508FEF80832F3F09F4A2CF4FBF822F0E94B5
S1132960F30E98CFACE2B0E0E8EBF4E10C948516FA
S1132970222E332E442E552E662E772E882E992EF7
S1132980FE013196A8E01192AA95E9F729823A82CC
S11329904B825C826D827E828F829886FE0139969C
S11329A0B8E01192BA95E9F7A986BA86CB86DC8697
S11329B0ED86FE860F87188B89819A81AB81BC8155
S11329C089A79AA7ABA7BCA77C018D018FEF9FEFC6
S11329D0A0E0B0E0E822F9220A231B2389A59AA5E6
S11329E0ABA5BCA51D014424552489859A85AB85D6
S11329F0BC858DA39EA3AFA3B8A75C016D018FEF27
S1132A009FEFA0E0B0E0A822B922CA22DB228DA168
S1132A109EA1AFA1B8A53D0188249924C801B7019E
S1132A20A60195010E94661669A37AA38BA39CA3B1
S1132A30C801B701A40193010E9466167B018C01B1
S1132A40C201B101A60195010E9466165B016C01E9
S1132A50C201B101A40193010E9466163B014C011D
S1132A60EA0CFB1C0C1D1D1D89A19AA1ABA1BCA1E4
S1132A709D01442755272E0D3F1D401F511F2A1528
S1132A803B054C055D0540F480E090E0A1E0B0E03A
S1132A90680E791E8A1E9B1ECA01AA27BB27860DB3
S1132AA0971DA81DB91D8D8F9E8FAF8FB8A3A90147
S1132AB03327222789A19AA1ABA1BCA1A070B07031
S1132AC0280F391F4A1F5B1F298F3A8F4B8F5C8F4A
S1132AD0A98CBA8CCB8CDC8CED8CFE8C0F8D18A160
S1132AE0FE01719698E011929A95E9F7ED8AFE8AB3
S1132AF00F8B188F2D813E814F8158856DA17EA14A
S1132B008FA198A50E9466163B014C012D853E8538
S1132B104F85588969A57AA58BA59CA50E94661640
S1132B202D893E894F89588D260F371F481F591FFD
S1132B30260D371D481D591D2D8B3E8B4F8B588FED
S1132B406D887E888F88988C2A2D3B2D4C2D5D2D89
S1132B50662D772D882D992DE2E1AC960C94A11663
S1132B60A0E1B0E0E6EBF5E10C948516222E332EBD
S1132B70442E552E662E772E882E992E002309F486
S1132B8066C088E0FE01319611928A95E9F729839F
S1132B903A834B835C836D837E838F829887E0E2E4
S1132BA0E01B1E16CCF52D813E814F815885602F88
S1132BB0772767FD7095DA01C901062E04C0B69522
S1132BC0A795979587950A94D2F78D879E87AF87A7
S1132BD0B88B04C0220F331F441F551FEA95D2F748
S1132BE089819A81AB81BC8104C0B695A7959795DC
S1132BF087956A95D2F7282B392B4A2B5B2B29878B
S1132C003A874B875C8729843A844B845C846D843F
S1132C107E848F8498881BC01D861E861F86188A12
S1132C202E2F332727FD3095309521953F4F8D81E9
S1132C309E81AF81B88504C0B695A7959795879571
S1132C402A95D2F789879A87AB87BC87DCCF222D58
S1132C50332D442D552D662D772D882D992DE2E1A8
S1132C6060960C94A116991B79E004C0991F9617DD
S1132C7008F0961B881F7A95C9F780950895AA1BBA
S1132C80BB1B51E107C0AA1FBB1FA617B70710F053
S1132C90A61BB70B881F991F5A95A9F78095909585
S1132CA0BC01CD01089597FB092E07260AD077FDB4
S1132CB004D0E5DF06D000201AF4709561957F4FAB
S1132CC00895F6F7909581959F4F0895629FD001DE
S1132CD0739FF001829FE00DF11D649FE00DF11DD3
S1132CE0929FF00D839FF00D749FF00D659FF00D82
S1132CF09927729FB00DE11DF91F639FB00DE11D6F
S1132D00F91FBD01CF01112408952F923F924F92D4
S1132D105F926F927F928F929F92AF92BF92CF9267
S1132D20DF92EF92FF920F931F93CF93DF93CDB770
S1132D30DEB7CA1BDB0B0FB6F894DEBF0FBECDBFE8
S1132D4009942A88398848885F846E847D848C84B9
S1132D509B84AA84B984C884DF80EE80FD800C81C2
S1132D601B81AA81B981CE0FD11D0FB6F894DEBFA5
S1132D700FBECDBFED010895DC0101C06D9341503C
S10B2D805040E0F70895FFCF75
S1112D880100FFFFFFFF010022FFFFFF01001B
S9030000FC
