S01800006275696C642F6D6963617A2F6D61696E2E73726563E5
S11300000C9463000C9493060C949D060C94A70620
S11300100C94B1060C94BB060C94C5060C940A0B04
S11300200C94CF060C9482000C9482000C94E00E85
S11300300C9481100C945D060C9473060C94D906F0
S11300400C94DA050C947A0E0C9482000C948200C1
S11300500C9482000C94EB050C9482000C948200A6
S11300600C9468060C9482000C9482000C94820018
S11300700C9482000C9482000C9482000C948200F4
S11300800C9482000C9482000C94820067119A11E3
S1130090F211181262126D126F12731277127D121E
S11300A09012A112B912A113EC13F21340145B14B1
S11300B061149A145015741588157D165F11CA16AB
S11300C000081C18141011241FBECFEFD0E1DEBFAE
S11300D0CDBF11E0A0E0B1E0E4EFF4E300E00BBF3A
S11300E002C007900D92A031B107D9F712E0A0E148
S11300F0B1E001C01D92A636B107E1F70E941F17B7
S11301000C94791A0C9400008FB7F89499270895E9
S11301108FBF08958FB7F89499272BB331E0232725
S11301202BBB8FBF0895282F9FB7F894662349F0FF
S1130130E82FFF27ED50FE4F8081882311F021E046
S113014006C0E22FFF27ED50FE4F608320E0892F89
S113015099278FBF822F99270895E82F8FB7F89496
S1130160282F332790E0FF27ED50FE4F808186171C
S113017009F491E02FBF892F99270895882311F05E
S11301806E9A08956E980895882311F06F9A0895D1
S11301906F98089580E00E94BE00BA9ABB98B99AFD
S11301A06C9A80E00E94C400709A6B986A98689870
S11301B081E00E94BE0008950F931F93CF93DF93B5
S11301C0182F8FB7F894C82FDD270C2F61E080E03B
S11301D00E949300882321F0CFBF85E090E024C0E3
S11301E0809108018823A1F480912201823081F456
S11301F009C082E080932201109208010E94CA0083
S1130200B89AC0981093050180E00FBF99270CC0DD
S113021080912201882369F38FB7F894992710926B
S1130220F3018FBF81E0F1CFDF91CF911F910F9147
S11302300895282F9FB7F894E82FFF27E95BFE4F16
S113024080818F3F81F4E0916402E21771F40BC066
S11302502093570204C0FF27E95BFE4F20832093BD
S1130260640220E007C025E005C0809157028F3F5B
S113027091F7EECF892F99278FBF822F9927089561
S11302801F93182F81E00E94BE001FB9779BFECFF9
S11302908FB199271F910895FF920F931F93CF93C6
S11302A0DF93F82E8B018FB7F894C82FDD2760E019
S11302B080E00E94AD00882321F0CFBF80E090E071
S11302C00CC0CFBF8F2D0E944001812F99270E941F
S11302D04001802F0E9440019927DF91CF911F9107
S11302E00F91FF9008958F929F92AF92BF92CF92F9
S11302F0DF92EF92FF920F931F93CF93DF938FB709
S1130300F8949927C0905F02D09060028090EA012F
S11303109090EB01C091C601D091C70120912B01AF
S113032030912C019AE0A92EB12CAC0EBD1E2A15D9
S11303303B0508F459018FBF7401EC0EFD1E8601C4
S11303400C0F1D1F14C0C114D10419F0F8018081D1
S113035001C080E00E9440018114910411F0F70172
S1130360808321960894E11CF11C0F5F1F4FC50187
S11303700197C817D90738F381E00E94C4009FB7DA
S1130380F894C114D10431F0CC0EDD1EF601808145
S11303908FB901C01FB8D093C701C093C601892F7C
S11303A099278FBF80E090E0DF91CF911F910F914B
S11303B0FF90EF90DF90CF90BF90AF909F908F9081
S11303C008952FB7F894332750932C0140932B01B1
S11303D09093600280935F027093EB016093EA0153
S11303E01092C7011092C6012FBF452B29F08FB17F
S11303F00E9473019927089584E10E94190180E005
S113040090E008958FB7F89499271092F5018FBF63
S11304100895982F969596959695E5E4F1E0E90F61
S1130420F11D877021E030E002C0220F331F8A954E
S1130430E2F7808182239927089580E8809344011C
S11304401092A20110925B021092560210929D012A
S11304500895CF93DF93FC0115A6DC019E96ED0170
S11304601B821A82198280E886A7DF91CF910895B2
S11304702F923F924F925F926F927F928F929F92B0
S1130480AF92BF92CF92DF92EF92FF920F931F939E
S1130490CF93DF93CDB7DEB728970FB6F894DEBFBE
S11304A00FBECDBF2090A9013090AA014090AB01AE
S11304B05090AC016624772488244EE4A42E33E8BB
S11304C0B32ECC24DD24EE24FF2400E010E0222D02
S11304D0332D442D552D662D772D882D90E00E94C7
S11304E0681829833A834B835C836D837E838F836F
S11304F09887822E932EA42EB52E2401350100E276
S11305000E946619A22EB32EC42ED52EC301B201A9
S113051096958795779567956A0D7B1D8C1D9D1D16
S113052097FF05C09F776F5F7F4F8F4F9F4F6093FB
S1130530A9017093AA018093AB019093AC01289612
S11305400FB6F894DEBF0FBECDBFDF91CF911F91E0
S11305500F91FF90EF90DF90CF90BF90AF909F905E
S11305608F907F906F905F904F903F902F90089561
S11305708FB7F8946091CA017091CB012CB53DB549
S113058006B602FE04C06F5F7F4F2CB53DB59927B8
S11305908FBF88279927CB017727662744275527BC
S11305A0622B732B842B952B0895EF92FF920F935C
S11305B01F930E94B8027B018C012091B3013091FA
S11305C0B4014091B5015091B6018091AE01909172
S11305D0AF01A091B001B091B101820F931FA41F8C
S11305E0B51FE216F3060407150730F082179307C8
S11305F0A407B50758F005C082179307A407B507E9
S1130600E0F5E816F9060A071B07B8F59C01AD01E9
S11306102E193F09400B510B213060E8360760E08A
S1130620460760E0560768F180E090E8A0E0B0E09B
S1130630E80EF91E0A1F1B1FE092B301F092B401E9
S11306400093B5011093B60180E090E8AFEFBFEFDF
S1130650E80EF91E0A1F1B1F20503048404050402E
S11306602093AE013093AF014093B0015093B10198
S113067020E030E840E050E014C020E030E040E00A
S113068050E08093B3019093B401A093B501B0936B
S1130690B6011092AE011092AF011092B001109207
S11306A0B101A901B7012CB53DB5C9018E199F0946
S11306B003968417950720F0B9016D5F7F4F02C040
S11306C0640F751F6115710511F461E070E06150EC
S11306D070407BBD6ABD80E186BF87B7806187BFFC
S11306E01F910F91FF90EF9008950F931F930FB7F1
S11306F0F89411276093B3017093B4018093B5010A
S11307009093B6012093AE013093AF014093B001B2
S11307105093B1010E94D5020FBF1F910F9108950C
S11307208FB7F89499276091FA018FBF85E0689F8D
S1130730B0011124625D7E4F706488E10E944C0117
S113074008951F931FB7F89480919C01882319F48E
S113075060E070E009C060E080915E02882309F4E3
S113076061E081E0682777278091A601882319F446
S113077080E090E00AC090E08091F801882309F4B9
S113078091E081E09827892F9927762F6627770FA4
S1130790770F770FE4E0880F991FEA95E1F7826EEF
S11307A09262682B792B81E10E944C01812F992759
S11307B08FBF1F91089597B79F7D97BF90E296BF13
S11307C0882319F08EB5806402C08EB58F7B8EBDF0
S11307D087B7806287BF80E090E00895982F969550
S11307E096959695ECECF1E0E90FF11D877021E008
S11307F030E002C0220F331F8A95E2F78081822302
S1130800992708959FB7F894292F3327422F909161
S11308100201981741F480911201833021F42FBF13
S113082081E090E008954FBF80E090E008958091CA
S11308305A02882319F02FE170E002C078E021E029
S1130840622FEFB7F89480919B018E7F80939B0178
S113085087B1982F9F71829586958695837019F03C
S113086080E090E012C0822F8850863118F081E039
S113087090E00BC040E050E03327892F99272817D8
S1130880390711F441E050E0CA01982F9170990F93
S113089080919B018178262F2F71422F440F440FA2
S11308A0892B842B80939B01332727B9783059F502
S11308B0809158029091590221E08638920718F0ED
S11308C087E090E01FC0833C910518F086E090E03B
S11308D019C08136910518F085E090E013C080338B
S11308E0910518F084E090E00DC08831910518F06E
S11308F083E090E007C00C9718F082E090E002C01B
S113090080E090E0782F7770887D872B886D992719
S113091086B98E2F99278FBF0895982F969596950F
S11309209695EEECF1E0E90FF11D877021E030E0DF
S113093002C0220F331F8A95E2F780818223992710
S113094008950F931F93CF93DF93182F8FB7F894C5
S1130950282F3327022F80911201882331F581E05B
S1130960809312011093F9012FBF8FB7F894C82F09
S1130970DD279C2F809102018230A9F4809112011D
S1130980813021F482E00E94190109C0823059F4B7
S11309908091F9018093020183E080931201CFBF1B
S11309A080E090E01FC09FBFFBCF812F0E948D0489
S11309B0882319F085E090E014C0E12FE695E695D0
S11309C0E695FF27E253FE4F177081E090E002C0E6
S11309D0880F991F1A95E2F72081282B208380E045
S11309E090E00FBFDF91CF911F910F910895EF9287
S11309F00F931F93AE2D99E0899FF0011124E153C9
S1130A00FE4F40835183628373830483158326835B
S1130A103783A17080858E7F8A2B8260808781E0F6
S1130A200E9419011F910F91EF9008957FB7F894D8
S1130A3062B720912E0130912F01409130015091E5
S1130A40310106B601FE0FC081B792B7280F311DE0
S1130A50411D511D2F5F3F4F4F4F5F4F290F311DD8
S1130A60411D511D04C0260F311D411D511D872FED
S1130A7099278FBFCA01B9010895DF92EF92FF92BF
S1130A800F931F938FB7F894282F3327D22E91B743
S1130A9082B746B7981711F041FF02C02FBF6AC052
S1130AA08091C5018823E1F10E941605E090EF01D1
S1130AB0F090F0010091F1011091F20120914001B8
S1130AC03091410140914201509143016E197F09D7
S1130AD0800B910B621773078407950720F010921F
S1130AE0C50171E01EC02E0D3F1D401F511F809196
S1130AF02E0190912F01A0913001B0913101281B5A
S1130B00390B4A0B5B0B273E31054105510540F477
S1130B10822F223010F070E005C070E082E002C045
S1130B2070E086EE682F615000B601FCFDCF82B7FD
S1130B30681709F46F5F20912E0130912F014091C5
S1130B40300150913101DA01C9010196A11DB11D95
S1130B50860F911DA11DB11D82179307A407B50728
S1130B6010F4622F609561BFDFBE772319F080E037
S1130B700E9419011F910F91FF90EF90DF9008954B
S1130B80AFB7F894BB27E1E0E093C5016093EF01B0
S1130B907093F0018093F1019093F201209340014E
S1130BA0309341014093420150934301AFBF0E94EF
S1130BB03D0508951F920F920FB60F9211248F9343
S1130BC083B783BF00B600FCFDCF8F910F900FBE9B
S1130BD00F901F9018951F920F920FB60F92112429
S1130BE02F933F934F935F936F937F938F939F9331
S1130BF0AF93BF93EF93FF9344B155B178948FB7FC
S1130C00F894992720919B01322F369531702170E9
S1130C108FBF2223D9F433988091C001813021F011
S1130C20823009F039C00AC0332351F05093ED01EA
S1130C304093EC018CE00E9419012EC0332319F477
S1130C400E94170429C01092C00126C08FB7F894DF
S1130C5099278FBF2FB7F894332786B1582F577031
S1130C60482F4072987D942B952B8074977B982BFA
S1130C7090619F77892F992786B9887D842B852B4E
S1130C8087738061992786B9887D842B852B877B20
S1130C908069992786B92FBFFF91EF91BF91AF91DA
S1130CA09F918F917F916F915F914F913F912F9180
S1130CB00F900FBE0F901F90189578941F920F926B
S1130CC00FB60F9211240F900FBE0F901F9018951E
S1130CD078941F920F920FB60F9211240F900FBEAB
S1130CE00F901F90189578941F920F920FB60F9241
S1130CF011242F933F938F939F932FB7F894332707
S1130D008091CA019091CB0101969093CB0180937D
S1130D10CA012FBF9F918F913F912F910F900FBECA
S1130D200F901F9018951F920F920FB60F921124D7
S1130D300F900FBE0F901F9018951F920F920FB631
S1130D400F9211240F900FBE0F901F9018951F92B1
S1130D500F920FB60F9211240F900FBE0F901F9099
S1130D6018951F920F920FB60F9211240F900FBE79
S1130D700F901F9018951F920F920FB60F92112487
S1130D800F900FBE0F901F9018951F920F920FB6E1
S1130D900F9211240F900FBE0F901F9018951F9261
S1130DA00F920FB60F9211240F900FBE0F901F9049
S1130DB018951F920F920FB60F9211242F933F9301
S1130DC04F935F936F937F938F939F93AF93BF934F
S1130DD0EF93FF9383B783BF00B600FCFDCF81B7C9
S1130DE099270196AA27BB2720912E0130912F0124
S1130DF04091300150913101280F391F4A1F5B1F68
S1130E0020932E0130932F014093300150933101F0
S1130E1078940E943D05FF91EF91BF91AF919F910E
S1130E208F917F916F915F914F913F912F910F908F
S1130E300FBE0F901F901895EF92FF920F931F9380
S1130E40CF93DF93982F8FB7F894E82E80911201F7
S1130E50833009F045C080910201891709F040C030
S1130E608091CE01882309F045C03EC0EF2DE69560
S1130E70E695E695FF274F2D5527E253FE4F9A013D
S1130E802770307081E090E002C0880F991F2A9586
S1130E90E2F78095208128232083C093110111C09B
S1130EA02196C230D10511F4C0E0D0E0FC2E8C2F85
S1130EB00E948D048823D1F6C017D10789F74FEF1C
S1130EC050E04093F9018FEF8093020181E0809319
S1130ED0120182E00E941901EFBE80E090E010C090
S1130EE0EFBE81E090E00CC082E08093020110929A
S1130EF01201F2CF80911101082F1127E801D0CF00
S1130F00DF91CF911F910F91FF90EF900895AF92D1
S1130F10BF92CF92DF92EF92FF920F931F93CF93E2
S1130F20DF935B016C01C0E0D0E0EFECF1E07C2FDB
S1130F30608561FFA5C02081318142815381E480B5
S1130F40F58006811781D601C501821B930BA40B82
S1130F50B50B8E159F05A007B10708F491C060FF7B
S1130F6003C06D7F608708C02E0D3F1D401F511FB9
S1130F702083318342835383713009F087C080E03A
S1130F800E940204882309F43AC09FB7F894209180
S1130F901401222319F421E030E00FC080910301F1
S1130FA0813019F020E030E008C040E050E02150EA
S1130FB0223010F441E050E09A01892F99278FBF25
S1130FC02223E9F08FB7F894082F1127902F8091EE
S1130FD00301813099F480911401813021F483E07C
S1130FE00E94190109C0823049F48091A5018093BF
S1130FF0030183E0809314010FBF01C09FBF81E010
S11310000E940204882309F441C09FB7F8942091F8
S11310101501222319F421E030E00FC0809116015C
S1131020882319F020E030E008C040E050E021506F
S1131030223010F441E050E09A01892F99278FBFA4
S1131040222321F18FB7F894082F1127902F809134
S11310501601882399F480911501813021F484E0EC
S11310600E94190109C0823049F480916301809380
S1131070160183E0809315010FBF08C09FBF06C00F
S113108021963996C330D10509F051CF81E00E94F1
S11310901901DF91CF911F910F91FF90EF90DF9095
S11310A0CF90BF90AF9008950F931F93182F0FB751
S11310B0F89461E080E00E949300882371F5109316
S11310C00501809108018823A9F5809122018230CD
S11310D089F583E10CC00E94CA0080912201882313
S11310E049F481E08093220110929E0185E10E94DF
S11310F019012AC08091B2018F3F31F5E0910701B7
S1131100EE2311F11CC01092060104C0FF27EE5417
S1131110FE4F10821092070117C081E090E002C0D8
S1131120880F991F1A95E2F720912101282B20930B
S113113021010AC0809122018823E1F6CCCF80915D
S113114006018F3F19F7DFCF802F99278FBF80E0EB
S113115090E01F910F9108951F9383E00E94DC009B
S11311609927182F882319F083E00E945408812FAF
S113117099271F910895EF92FF921F93CF93DF93C6
S1131180E090A701F090A801F70182A59927182FF4
S1131190882309F41FE1C09880919A01811749F0CE
S11311A0612F77276F717070606E706885E10E949F
S11311B04C0110939A01F70110818FB7F894C82F4E
S11311C0DD2760E080E00E94AD00882311F0CFBFEE
S11311D012C0CFBF8EE390E09093BC018093BB011B
S11311E08EE30E9440011150412F552760E070E0CA
S11311F0C7010E94E101DF91CF911F91FF90EF9011
S11312000895FF920F931F93CF93DF93EC01F62E73
S113121061E082E00E949300882319F085E090E069
S113122069C08091FC018F5F8093FC0181508B83A6
S11312308FB7F894082F112762E081E00E94AD0077
S1131240882329F40FBF0E94020281E052C08FB7A5
S1131250F894992724E02093F4018FBFD093C4011C
S1131260C093C3010FBF8DE0F80EFE01F192898196
S1131270992780729070898311828981992781646A
S113128098688983892F992781831CA618A619A693
S113129019AA18AA1FA680E88EA761E06093F70137
S11312A04091C3015091C4018FB7F894282F33277C
S11312B080912301909124018830910511F00197C8
S11312C011F02FBF15C082E090E090932401809329
S11312D02301609365025093A8014093A7011092E3
S11312E02D012FBF0E94AC08882311F40E94BB0873
S11312F080E09927DF91CF911F910F91FF9008957E
S1131300FA01422F2D3118F082E090E0089583878E
S11313106683872F992787832FB7F8943327809183
S1131320A3019091A4012FBF8483892F99278583DA
S11313302FB7F89433278091090190910A012FBFA8
S11313408087892F9927818780910C01882369F0F0
S113135010920C018FE38287642FCF010E94010950
S11313609927282F8823A9F417C0842F99279093AD
S1131370C2018093C101F0932801E093270187E122
S11313800E94190180910C01882349F489E090E0BE
S113139008958FEF80930C01822F9927089510925E
S11313A0AD0180E090E008951F93CF93DF93182F51
S11313B0EB01E82FFF27EE0FFF1FE853FE4F1182CA
S11313C0108210920F01E091C801F091C901309789
S11313D021F080915C0280FF11C081E080930F01B5
S11313E003C089E10E9419011123D1F4C656D140EA
S11313F0B9F4109210010E948A0012C020812D506D
S1131400332767817727762F662786819927682B6C
S1131410792BAF0183850E948009882329F3E1CFCA
S1131420DF91CF911F9108959B0180910F01882333
S113143049F46091C8017091C9016217730711F4EE
S11314400E94D4090895CF92DF92EF92FF920F93F6
S11314501F93CF93DF938C01F62E6A01E22E8FB790
S1131460F894C82FDD2760E080E00E94AD00882357
S113147021F0CFBF80E090E01EC0CFBF0F0D111D43
S1131480802F80680E944001F82E16950795802FC2
S1131490807C0E9440010E2D0AC0EE2DFF27E01B28
S11314A0F109EC0DFD1D80810E94400101500023D3
S11314B0A1F78F2D9927DF91CF911F910F91FF9065
S11314C0EF90DF90CF900895CF93DF93CDB7DEB741
S11314D024970FB6F894DEBF0FBECDBF8FB7F89434
S11314E099272091A3013091A4012983232F332725
S11314F02A832091B7013091B8012B83232F3327FE
S11315002C838FBF24E0AE014F5F5F4F60E088E61D
S113151091E00E94230A24960FB6F894DEBF0FBE12
S1131520CDBFDF91CF9108951F93CF93DF93182FF1
S11315308FB7F894C82FDD2760E080E00E94AD00EB
S1131540882321F0CFBF80E090E005C0CFBF812F7A
S11315500E9440019927DF91CF911F910895EF9246
S1131560FF920F931F93CF93DF93182F7B01042FC8
S11315708FB7F894C82FDD2760E080E00E94AD00AB
S1131580882321F0CFBF80E090E014C0CFBF106467
S1131590812F99279093BC018093BB010E94400145
S11315A0182F402F5527B70180E090E00E94E101F9
S11315B0812F9927DF91CF911F910F91FF90EF9089
S11315C00895C0986091290170912A0141E08FE348
S11315D00E94AF0A089582E090E0909362018093A4
S11315E0610181E08093A20120E030E08091050157
S11315F0843011F421E030E0232B29F484E00E94AC
S1131600DC00882319F40E94E10A089584E00E9412
S1131610540808951F920F920FB60F9211242F931E
S11316203F934F935F936F937F938F939F93AF9366
S1131630BF93EF93FF9380916101909162010197B1
S113164049F482E090E090936201809361010E94EA
S1131650EB0A05C080919D018F5F80939D01FF91EE
S1131660EF91BF91AF919F918F917F916F915F9116
S11316704F913F912F910F900FBE0F901F9018958F
S11316801F9380912101882309F04BC0109105011B
S11316901F3F09F046C060E00E94AD00882309F4B2
S11316A040C081E08093FB01809146018823E1F1F1
S11316B01092FB0185E090E045C0923069F5C09A34
S11316C08091060120E030E08F3F11F421E030E00A
S11316D0232BE9F4109308018F3F19F42FEF30E026
S11316E00DC0282F3327F901EE54FE4F80818093DB
S11316F006018F3F11F410930701108320939E017C
S113170081E08093220185E10E94190105C01093B4
S113171008011092220111C080912201882369F0EE
S11317200FC081E090E00EC08091080190912201E9
S1131730882319F2923021F0EFCF80E00E94BE009E
S113174080E090E01F9108951F93182F81E090E0AE
S11317509093240180932301109246010E94400B30
S11317608FB7F894992710931D018FBF8FE00E94C3
S113177019011F9108951F93CF93DF939FB7F89496
S1131780C92FDD271C2F90910501981721F0CFBF99
S113179081E090E03AC08FEF809305013091210100
S11317A03323F1F48FB7F89499271092F3018FBF84
S11317B00E94400BCFBF11C02093050181E090E04F
S11317C002C0880F991F4A95E2F780953823309319
S11317D0210183E10E9419011FBF80E090E015C040
S11317E080E065E0E32FFF270E94E919292F492FA4
S11317F05527CF01042E02C0959587950A94E2F7E8
S113180080FDDACF822F8F5FEFCFDF91CF911F91D1
S113181008951F93CF93DF938FB7F894C82FDD27D4
S11318201C2F8091610190916201892B29F484E03D
S11318300E94BB0BCFBF1EC01092A20180919D01DC
S1131840882311F0B79904C00E9908C0882319F0B1
S1131850815080939D010E94EB0A0BC081E090E0CF
S1131860909362018093610110929D0184E00E9433
S1131870BB0B1FBFDF91CF911F9108950E941D02E2
S1131880C09AC09888E00E94940A88E00E94940A52
S1131890C09A84E00E94BB0B0E94090C0895CF9269
S11318A0DF92EF92FF920F931F93CFB6F894DD244B
S11318B00E943802DC01CB0166E470E00E94F51955
S11318C0FBE0EF2EF12CE80EF91EF0926202E0929A
S11318D061020E94B80200271127A80197010E9403
S11318E07503CFBE1F910F91FF90EF90DF90CF90C3
S11318F008951F93CF93DF938FB7F894C82FDD27F4
S11319001C2F80912301909124010897C9F489E048
S11319100E94940A83E00E94BB0BC09A81E090E08D
S113192090932401809323018FB7F894992723E09F
S113193020931D018FBF8FE00E941901CFBF30C0DB
S1131940C09880916502882311F085E001C084E08D
S11319500E94940A83FD09C080E00E94940A83FFD8
S113196004C085E090E020E003C083E090E021E043
S11319709093240180932301C09A1FBF222341F036
S113198010922D0183E00E94BB0B0E944F0C08C0F3
S11319900E94B80220E431E040E050E00E94750368
S11319A0DF91CF911F910895EF92FF920F931F93B0
S11319B0CF93DF938B018091BB019091BC0186FF93
S11319C040C18F7B8F3309F08EC1C0912901D09122
S11319D02A015881509364018091610190916201C0
S11319E08530910509F443C08630910509F48AC015
S11319F0029709F01FC185E090E090936201809303
S1131A00610140914401852F99270196242F3327A2
S1131A10281739074CF1B79906C00E9904C0451B25
S1131A20415040934401409164014A32E8F4442314
S1131A30A1F0BE016F5F7F4F483018F047E050E0DF
S1131A4007C086E090E0909362018093610155277E
S1131A5080E090E00E94E10146C11092A201C09A88
S1131A6084E00E94BB0BE3C00E943E0C3CC186E0B4
S1131A7090E090936201809361018091A601882394
S1131A8009F439C08091F8018823A9F5898185FF7B
S1131A9032C08F814E812FB7F89433276091B701FC
S1131AA07091B8012FBF9927982F88275527842B29
S1131AB0952B8617970759F08F812E819927982F98
S1131AC088273327822B932B8F5F9F4FA1F4898123
S1131AD08770813081F4C09AC0988AE00E94940A89
S1131AE0C09AC0984091640147502896BE018FE384
S1131AF00E94AF0AF8C040916401475055272896C8
S1131B00BE01A6CFC09A80919D01882339F484E058
S1131B100E94BB0B80919D01882311F0B7990AC0E4
S1131B200E9B08C090915602992321F08091640184
S1131B308B3038F48091290190912A010E94290266
S1131B403DC0913001F5E0915B02FF27EE0FFF1FCE
S1131B50EE0FFF1FEE5FFD4F2081318142815381E3
S1131B60E0912901F0912A0121ABBB27A52F942FE5
S1131B70832F80ABCA01AA27BB2787A7252F33272A
S1131B804427552726A780915B029927019668E090
S1131B9070E00E94091A80935B0280915602815082
S1131BA080935602882351F08091290190912A0153
S1131BB00E94290210925B021092560280916401E5
S1131BC0FE01E80FF11D808187FF31C0012B79F1FF
S1131BD069816770E0912901F0912A01623019F559
S1131BE0A091A701B091A801109709F18091230158
S1131BF0909124010797D9F4ED019B818381981773
S1131C00B1F487B78F7E87BF908181E08CA7E90FFD
S1131C10F11D8291319688A780818F7789A780E012
S1131C200E94A40B04C0613011F486E12AC00E9412
S1131C30090C59C01092A201C09A84E00E94BB0B07
S1131C4052C08E3309F04FC0C09A80912301909105
S1131C5024010897C9F4C09889E00E94940AC09AA4
S1131C6083E00E94BB0B81E090E090932401809379
S1131C7023018FB7F894992723E020931D018FBF88
S1131C808FE00E9419012FC080916502882349F4D6
S1131C9084E090E090932401809323010E94790CC6
S1131CA022C083E00E94BB0B83E090E09093240168
S1131CB0809323010E943802DC01CB0166E371E0CA
S1131CC00E94F519ABE0EA2EF12CE80EF91EF09211
S1131CD03F01E0923E010E94B80200271127A801AB
S1131CE097010E947503DF91CF911F910F91FF908F
S1131CF0EF9008951F920F920FB60F9211242F9315
S1131D003F934F935F936F937F938F939F93AF937F
S1131D10BF93EF93FF932FB1E091EA01F091EB01B0
S1131D20309739F08091C6019091C701E80FF91FEF
S1131D3020838091C6019091C70101969093C701B9
S1131D408093C60180E00E94C40040912B01509111
S1131D502C018091C6019091C7018417950718F44E
S1131D600E9473011CC06091EA017091EB018091A3
S1131D705F02909160021092EB011092EA011092BE
S1131D80600210925F0210922C0110922B011092AB
S1131D90C7011092C6012FB120E00E94D40CFF911C
S1131DA0EF91BF91AF919F918F917F916F915F91CF
S1131DB04F913F912F910F900FBE0F901F90189548
S1131DC078941F920F920FB60F9211242F923F9284
S1131DD04F925F926F927F928F929F92AF92BF9237
S1131DE0CF92DF92EF92FF920F931F932F933F9323
S1131DF04F935F936F937F938F939F93AF93BF930F
S1131E00CF93DF93EF93FF93CCB5DDB580E286BF2C
S1131E108FB7F894282E0E94B8029E01261B370B18
S1131E202901662457FC6094762C460E571E681EC2
S1131E30791E80912301909124018530910521F030
S1131E40069709F0E0C0BFC086E090E090932401BB
S1131E508093230131E0332E3092A00110922501AA
S1131E6080E00E94DB03E091A701F091A80141AA60
S1131E70BB27A72D962D852D80ABC301AA27BB2791
S1131E8087A7872D9927AA27BB2786A7E091A701B3
S1131E90F091A80185A5882309F484C06081655068
S1131EA077274F01860E971EF4012081E1808281FD
S1131EB0A3809927AA27BB27BA2FA92F982F882751
S1131EC0332744275527522F442733272227FF241B
S1131ED0002711278701FF24EE242E293F29402BB8
S1131EE0512BBB24CC24DD242A293B294C295D29F0
S1131EF0822B932BA42BB52B84199509A609B7091A
S1131F008383292F3A2F4B2F552722839D01442762
S1131F10552721838B2F9927AA27BB278083C09815
S1131F2024E0A40180E090E00E94230AC09AF40116
S1131F302081E1808281A3809927AA27BB27BA2F19
S1131F40A92F982F8827332744275527522F442712
S1131F5033272227FF24002711278701FF24EE249B
S1131F602E293F29402B512BBB24CC24DD242A29A4
S1131F703B294C295D29822B932BA42BB52B840D53
S1131F80951DA61DB71D8383292F3A2F4B2F552747
S1131F9022839D014427552721838B2F9927AA2724
S1131FA0BB278083E091A701F091A801818185FF7F
S1131FB002C03092460183E00E94BB0B87B78F7E3C
S1131FC087BF84997AC01092A00181E00E94DB034C
S1131FD0E091A701F091A801818185FF0FC087E0FE
S1131FE090E090932401809323010E94B80220E0A2
S1131FF031E040E050E00E94750303C080E00E949D
S1132000A40B849B5AC080912501882391F580916B
S1132010A001882371F511E01093A0010E94DB0355
S113202080B320915602283098F4E0915B02E20FCD
S1132030FF27E770F070EE0FFF1FEE0FFF1FEE5F3C
S1132040FD4F40825182628273822F5F2093560239
S113205010932501D093BE01C093BD0184992DC076
S1132060992764E0969587956A95E1F7182F117082
S113207001C010E08091A0018130F9F41092A00118
S11320800E94DB03109225011123B9F48091BD0154
S11320909091BE01C81BD90B2A9778F480915602FF
S11320A0882319F08150809356028091A701909162
S11320B0A801009711F00E9429022FBEFF91EF9111
S11320C0DF91CF91BF91AF919F918F917F916F914C
S11320D05F914F913F912F911F910F91FF90EF903E
S11320E0DF90CF90BF90AF909F908F907F906F9034
S11320F05F904F903F902F900F900FBE0F901F90C6
S1132100189578941F920F920FB60F9211241F9373
S11321102F933F934F935F936F937F938F939F93EB
S1132120AF93BF93EF93FF9387B78F7E87BF789466
S11321301FB7F8948091AE019091AF01A091B001C6
S1132140B091B1010097A105B10509F051C080918A
S11321502301909124018530910561F18630910528
S113216030F48330910549F0049781F51AC0873023
S11321709105F1F0089751F514C0869B0FC084E0D7
S113218090E090932401809323010E94B80227E0F9
S113219030E040E050E00E94750318C00E944F0CEC
S11321A015C00E94AC08882389F40E94790C0EC0E3
S11321B080E00AC089E00E94940A81E00E94DB0367
S11321C083E00E94BB0B87E00E94A40B80911E0158
S11321D090911F01019771F482E090E090931F01A8
S11321E080931E01DE98DE9A80E00E94540802C0AB
S11321F00E94D502812F99278FBFFF91EF91BF9144
S1132200AF919F918F917F916F915F914F913F918A
S11322102F911F910F900FBE0F901F90189561E0A2
S113222081E00E9493008823E9F48FB7F894282F63
S1132230332780911E0190911F01892B11F02FBF2C
S113224020C081E090E090931F0180931E012FBF76
S1132250DD9A0E94B80224E130E040E050E00E94A0
S113226075030FC062E081E00E94AD00882319F07D
S113227089E090E0089561E081E00E94AD00882348
S113228019F080E090E0089585E090E00895AF9221
S1132290BF92CF92DF92EF92FF920F931F93CF934F
S11322A0DF93E82FFF27EA31F10508F0A0C5EA5BC8
S11322B0FF4FEE0FFF1F0590F491E02D09948091DC
S11322C05C02882309F493C540E011E041C5809184
S11322D06501882361F52091FE013091FF01409151
S11322E0000250910102EFB7F894FF276091EF01CB
S11322F07091F0018091F1019091F201E090400120
S1132300F090410100914201109143016E0D7F1D37
S1132310801F911FEFBF2093FE013093FF01409374
S1132320000250930102109265010E94C0050E94B0
S1132330160543C00E9416055B016C018FB7F89423
S113234099271092C5018FBFBFEFEB2EBFEFFB2E75
S1132350BFEF0B2FBFE71B2F60E0EFECF1E08085B0
S113236081FF1CC080819181A281B381A601950166
S1132370281B390B4A0B5B0BDA01C9012481358117
S113238046815781281B390B4A0B5B0B2E153F05E1
S1132390400751071CF479018A0161E0399631E064
S11323A0EA3EF307E1F6662309F421C51E141F046F
S11323B0100611062CF0C601B5010E94870717C547
S11323C0E092FE01F092FF010093000210930102DB
S11323D081E080936501A8019701C601B5010E94BF
S11323E0C00505C58FB7F89499272091F90120936A
S11323F0020123E0209312018FBF80910201882300
S113240021F0813009F0F3C403C0159A1D9A02C06B
S1132410169A1E9A0E941605AB01BC01A1E0EA2E91
S11324200AE010E020E030E081E00E94F704DFC41D
S11324302FB7F89433278091A5018093030143E0DB
S1132440409314012FBF809103018093FD018FB746
S1132450F894C82FDD2780911C01882341F581E081
S113246080931C011092CD01CFBF8FB7F8949927A8
S1132470379A8FBF8FB7F894C82FDD279C2F809190
S11324800401813091F480911C01813021F48BE0AE
S11324900E94190108C0823041F48091CD018093DB
S11324A0040140931C01CFBFA2C49FBFA0C480E01D
S11324B00E94EE038823B9F78091CC018160809358
S11324C0CC01F1CF8FB7F894992720916301209321
S11324D0160123E02093150121C080E005C01D985A
S11324E0159889E007C081E00E94A10480C41E9869
S11324F016988AE00E9419017AC480E00E941C07A1
S113250080911801813019F480E00E94A1048FB7F2
S1132510F894992710921801109217018FBF67C47D
S113252081E00E941C0780911A01813011F40E94FD
S1132530A1048FB7F894992710921A0110921901E7
S1132540EDCF2FB7F89433278091CD018093040108
S113255083E080931C012FBF80910401882309F03C
S113256046C481E08093C00110925A020E9417046D
S11325703EC41092C001A090EC01B090ED01809196
S11325805A02882309F033C48FB7F894E82E809157
S11325901C01833009F040C0809104018823E1F5D7
S11325A08091CC01882309F00AC402C4EF2DE6957A
S11325B0E695E695FF274F2D5527E453FE4F9A01E4
S11325C02770307081E090E002C0880F991F2A952F
S11325D0E2F78095208128232083C0931B0111C03A
S11325E02196C130D10511F4C0E0D0E0FC2E8C2F2F
S11325F00E94EE038823D1F6C017D10789F74FEF65
S113260050E04093CD018FEF8093040181E08093EB
S11326101C018BE00E941901EFBE80E00E940204BD
S1132620882309F48AC0D090FD018FB7F894E82E6E
S113263080911401833009F040C0809103018D150D
S1132640E1F580914501882309F0C8C3BEC3EF2D8D
S1132650E695E695E695FF274F2D5527EB5BFE4F54
S11326609A012770307081E090E002C0880F991FB2
S11326702A95E2F78095208128232083C0931301B3
S113268011C02196C130D10511F4C0E0D0E0FC2E78
S11326908C2F0E9409028823D1F6C017D10789F72D
S11326A04FEF50E04093A5018FEF8093030181E049
S11326B08093140183E00E941901EFBEDD20E9F547
S11326C0809110018823C9F5A09273018B2D99275D
S11326D08093720146E651E08FEF80936C01809302
S11326E06D0181E1809371018091C8019091C901CC
S11326F0892B19F55093C9014093C8018FE0809349
S1132700660180910F018823A9F010920F0122E045
S11327106FEF7FEF81E10E9480099927282F88239A
S113272049F081E080930F011092C9011092C80111
S1132730222319F481E08093100181E00E940204B5
S113274056C30FB7F894112781E00E94DB03E1E040
S1132750EE2EF12CF0922401E09223011092250137
S11327601092460110929A010FBF0FB7F8941127E7
S11327700E941D02F0926201E09261011092A20196
S113278089B78F7B89BF80E488BF8AB780628ABF9C
S11327908AB78F7E8ABF89B7806489BF0FBF8FB71E
S11327A0F894C82FDD2780911E0190911F01049792
S11327B019F483E00E94940ACFBF0FB7F89411274D
S11327C0C09A80E00E94BB0B0FBF8FB7F894992783
S11327D022E02093F401A2CE8FB7F89499271092A7
S11327E0F4019CCE8FB7F8949927F0901D018FBF08
S11327F063E081E00E94AD00882359F10FB7F8949B
S11328001127109224011092230187B78F7E87BF6E
S113281087B78F7D87BF83E00E94BB0BC09A0FBF31
S11328200FB7F894112710926201109261010E946F
S11328301D02C09A89B78F7B89BF0FBF10921F01F9
S113284010921E01DE98DD98DE9A8EE00E94190136
S113285007C08FB7F894992722E02093F4018FBF23
S1132860C091C301D091C4010E9402028A858F33B2
S113287009F0BDC28FEF80930C014F2DBE015FC2E2
S11328808FB7F894282F3327122F8091630288235F
S113289001F581E08093630280911E0190911F01F4
S11328A0049721F481E00E94540803C081E10E944E
S11328B019011FBF9CC28FB7F89499271092630225
S11328C02DCE8FB7F894282F3327809120018823A9
S11328D011F02FBF8CC22FBF80B3992776E0969555
S11328E087957A95E1F7182F11709091B90180912D
S11328F0BA018917D9F01917C9F484E090E09093CC
S11329001F0180931E018FB7F894992721E020932B
S113291020018FBF60E070E08DE10E944C010E94B5
S1132920640AC09AC0988DE00E9419011093BA01FC
S113293082E1E0CD8FB7F8949927109105018FBFFC
S1132940123009F460C0133030F4112359F01130FF
S113295009F04DC243C0133009F46FC0143009F0BC
S113296046C29BC0C0988FB7F894C82FDD278091CA
S11329701E0190911F01029709F095CD83E090E02C
S113298090931F0180931E0168E170E08DE10E9425
S11329904C0181E08093B9011092200180B3992702
S11329A066E0969587956A95E1F7817090708093BB
S11329B0BA0182E10E94190181E00E94940A6FE742
S11329C072E08CE10E944C010E9490030E94A103DA
S11329D066E57AE287E10E944C0165CDC09886E005
S11329E00E94940A0E9490030E94A1030E94640A18
S11329F0C09AC09883E00E94940AC09A81E00E9421
S1132A00BB0B81E177CDC0988FB7F894C82FDD2731
S1132A1060E080E00E94AD00882311F0CFBF0AC0BF
S1132A20CFBF83E50E94400180E00E94400180E026
S1132A300E944001C09A82E02DC08FB7F894992774
S1132A40209123018FBF243039F0283041F0223007
S1132A5001F50E94BB08CBC10E94790CC8C1C09883
S1132A6089E00E94940AC09A83E00E94BB0B8FB74E
S1132A70F894992721E030E0309324012093230136
S1132A808FBF8FB7F894992710931D018FBF8FE0E4
S1132A9031CD83E00E94BB0BAAC10E94E10AA7C109
S1132AA00FB7F894112740912B0150912C0160919C
S1132AB0EA017091EB0180915F02909160021092A3
S1132AC0EB011092EA011092600210925F021092E0
S1132AD02C0110922B011092C7011092C60120E024
S1132AE00E94D40C0FBF83C12FB7F8943327809171
S1132AF09E018093080182E0809322012FBF809180
S1132B000801882309F073C1B89AC09883E1F2CC14
S1132B10A0912901B0912A011C91FD01E10FF11D41
S1132B208081881F8827881FED018BA780818F777C
S1132B3089A73197808188A7E0912901F0912A0122
S1132B408FB7F894992720919C018FBF2223F9F025
S1132B50878146812FB7F89433276091B70170912C
S1132B60B8012FBF9927982F88275527842B952B99
S1132B708617970761F0878126819927982F8827E0
S1132B803327822B932B8F5F9F4F09F0ADC01D30ED
S1132B9008F4AAC0C0912901D0912A018985288509
S1132BA09927582F44273327422B532B6B818FEFC0
S1132BB080935D028FB7F894782F20E030E0E2E351
S1132BC0F1E0808191818417950731F48281861721
S1132BD009F479C020935D022F5F3F4F3396243070
S1132BE0310579F77FBF90915D023FB7F8949F3F1D
S1132BF021F080912601891799F420912601822FD2
S1132C009927FC01EE0FFF1FE80FF91FEE5CFE4F42
S1132C105183408362832F5F2370209326010CC06D
S1132C20892F9927FC01EE0FFF1FE80FF91FEE5CB7
S1132C30FE4F518340836283832F99278FBF8BA5D7
S1132C40882309F44DC08A858F3309F049C08F81E8
S1132C504E812FB7F89433276091090170910A01CE
S1132C602FBF9927982F88275527842B952B8617B4
S1132C70970759F08F812E819927982F882733271A
S1132C80822B932B8F5F9F4F59F58B85813141F5B3
S1132C901F3031F58FB7F894082F11278091140154
S1132CA0882399F491E0909314011092A5010FBF29
S1132CB080911701882321F485E00E94190110C036
S1132CC0909318010DC07FBF0BC080E00E940902E1
S1132CD0882329F4809145018160809345010FBFC9
S1132CE0D0932A01C09329018FB7F89499271092A1
S1132CF0A2018FBF0E94090C7AC09091AD0180910E
S1132D000C01981709F473C090930C019923D9F41A
S1132D10C0912701D09128016091C1018FE38A8776
S1132D20CE010E940109482F5527442309F45FC0AE
S1132D308FEF80930C0160912701709128018B859E
S1132D400E94140A54C08FEF80930C0150C0110FDD
S1132D5090915C02812F8923C9F0E42FFF27EE0FA5
S1132D60FF1FE853FE4F2081318111821082812F91
S1132D708095982390935C02442341F42656314075
S1132D8099F5109210010E948A002EC04F5F4830BE
S1132D90F0F22DC080910F01E82FFF27EE0FFF1FE7
S1132DA0E853FE4F6081718141E00E94D4091FC045
S1132DB081E08093040110921C0137982DCC8091FE
S1132DC01B01082F1127E8010BCC81E0809303013C
S1132DD0109214018093170186E06DCC8091130149
S1132DE0082F1127E8014DCC110F41E0B1CFDF913D
S1132DF0CF911F910F91FF90EF90DF90CF90BF90F4
S1132E00AF900895809157028F3FB1F0282F332758
S1132E10F901E95BFE4F8081809357028F3F11F4E3
S1132E20809364028FEF80832F3F31F0822F0E94C2
S1132E30471181E090E0089580E090E008951F93A9
S1132E401FB7F8944AE150E06FEF70E087E491E037
S1132E500E94721A8FEF809357028093640281E07C
S1132E608EBD88E080BF83E083BF8CB59DB54AE703
S1132E702CB53DB52817390708F44150442311F007
S1132E80C901F6CF92B782B78917E9F32CB53DB5DE
S1132E9092B782B78917E9F38CB59DB5821B930B62
S1132EA0409625E0969587952A95E1F790935902E7
S1132EB08093580213BE83B78EBD8EB580BF12BEF9
S1132EC01DBC1CBC8FEF86BF86B780937C0080B787
S1132ED0992787709070892BD1F7D29AD19AD09A7A
S1132EE0DA9AD99AD89A15BA8FEF84BBD498DC9819
S1132EF01DBC1CBC87B7846087BF8EB5887F846087
S1132F008EBD16B880E285BF0E9402178823E1F7C0
S1132F108FEF80939F01E2E3F1E08FEF9FEF9183C6
S1132F2080831282339621E0EE33F207C1F70E94C8
S1132F3038026093FC018091000190910101019697
S1132F40AA27BB278093A9019093AA01A093AB0160
S1132F50B093AC0182E292E090932A01809329011C
S1132F608E98B89A8C988FEF8093B2011092F301E7
S1132F701092F4011092F5011092F601B89AD69AC3
S1132F80D59A8FB7F89499272091090130910A01B5
S1132F908FBF3093B8012093B70180910B0199271B
S1132FA09093A4018093A3018FE18093EE018AE1C1
S1132FB08093FA0181E080939C0110925E028093D9
S1132FC0A6011092F8011092CC01109245011092C2
S1132FD0CE0180B7886080BF8BE083BF86EE81BF5F
S1132FE087B7826087BF0E943D050E94021788232D
S1132FF0E1F7812F99278FBF78940E940F11DA98F7
S11330008FB7F894482F552748C087B799278370FE
S11330109070892B19F4E5E0F0E013C080B799278C
S113302087709070892BD1F781B792B7891B8C3048
S113303030F082B7853F18F4E3E0F0E002C0E2E04C
S1133040F0E087B7887BC1F480917D008B7FA1F489
S11330506E9912C08AB190919A00892B807C61F498
S11330608091740082FD08C0379B03C081E090E02A
S113307005C085E090E002C080E090E025B78E179F
S113308008F4E82FFF27E054FF4FE491237E2062E9
S1133090E22BE5BF78948895F894809157028F3F8E
S11330A009F4B3CF282F3327F901E95BFE4F808160
S11330B0809357028F3F11F4809364028FEF8083D3
S11330C02F3F09F4A2CF4FBF822F0E94471198CF00
S11330D0ACE2B0E0EEE6F8E10C943B1A222E332E7B
S11330E0442E552E662E772E882E992EFE0131966B
S11330F0A8E01192AA95E9F729823A824B825C8270
S11331006D827E828F829886FE013996B8E0119294
S1133110BA95E9F7A986BA86CB86DC86ED86FE8663
S11331200F87188B89819A81AB81BC8189A79AA763
S1133130ABA7BCA77C018D018FEF9FEFA0E0B0E0AF
S1133140E822F9220A231B2389A59AA5ABA5BCA5CD
S11331501D014424552489859A85AB85BC858DA39E
S11331609EA3AFA3B8A75C016D018FEF9FEFA0E012
S1133170B0E0A822B922CA22DB228DA19EA1AFA170
S1133180B8A53D0188249924C801B701A601950179
S11331900E941C1A69A37AA38BA39CA3C801B7013C
S11331A0A40193010E941C1A7B018C01C201B1018C
S11331B0A60195010E941C1A5B016C01C201B101B8
S11331C0A40193010E941C1A3B014C01EA0CFB1C54
S11331D00C1D1D1D89A19AA1ABA1BCA19D01442771
S11331E055272E0D3F1D401F511F2A153B054C0529
S11331F05D0540F480E090E0A1E0B0E0680E791E47
S11332008A1E9B1ECA01AA27BB27860D971DA81DCF
S1133210B91D8D8F9E8FAF8FB8A3A90133272227A5
S113322089A19AA1ABA1BCA1A070B070280F391FCD
S11332304A1F5B1F298F3A8F4B8F5C8FA98CBA8CE6
S1133240CB8CDC8CED8CFE8C0F8D18A1FE0171965D
S113325098E011929A95E9F7ED8AFE8A0F8B188F00
S11332602D813E814F8158856DA17EA18FA198A5A6
S11332700E941C1A3B014C012D853E854F855889BF
S113328069A57AA58BA59CA50E941C1A2D893E8947
S11332904F89588D260F371F481F591F260D371D7C
S11332A0481D591D2D8B3E8B4F8B588F6D887E8802
S11332B08F88988C2A2D3B2D4C2D5D2D662D772DD6
S11332C0882D992DE2E1AC960C94571AA0E1B0E058
S11332D0ECE6F9E10C943B1A222E332E442E552EA3
S11332E0662E772E882E992E002309F466C088E076
S11332F0FE01319611928A95E9F729833A834B832B
S11333005C836D837E838F829887E0E2E01B1E16C8
S1133310CCF52D813E814F815885602F772767FD3D
S11333207095DA01C901062E04C0B695A795979544
S113333087950A94D2F78D879E87AF87B88B04C090
S1133340220F331F441F551FEA95D2F789819A81B2
S1133350AB81BC8104C0B695A795979587956A956E
S1133360D2F7282B392B4A2B5B2B29873A874B879B
S11333705C8729843A844B845C846D847E848F8446
S113338098881BC01D861E861F86188A2E2F3327F9
S113339027FD3095309521953F4F8D819E81AF81DA
S11333A0B88504C0B695A795979587952A95D2F7C1
S11333B089879A87AB87BC87DCCF222D332D442D98
S11333C0552D662D772D882D992DE2E160960C946C
S11333D0571A991B79E004C0991F961708F0961B99
S11333E0881F7A95C9F780950895AA1BBB1B51E1E4
S11333F007C0AA1FBB1FA617B70710F0A61BB70B61
S1133400881F991F5A95A9F780959095BC01CD0105
S1133410089597FB092E07260AD077FD04D0E5DF2F
S113342006D000201AF4709561957F4F0895F6F741
S1133430909581959F4F0895629FD001739FF001ED
S1133440829FE00DF11D649FE00DF11D929FF00D30
S1133450839FF00D749FF00D659FF00D9927729F67
S1133460B00DE11DF91F639FB00DE11DF91FBD01F2
S1133470CF01112408952F923F924F925F926F9241
S11334807F928F929F92AF92BF92CF92DF92EF92F0
S1133490FF920F931F93CF93DF93CDB7DEB7CA1B71
S11334A0DB0B0FB6F894DEBF0FBECDBF09942A889C
S11334B0398848885F846E847D848C849B84AA8444
S11334C0B984C884DF80EE80FD800C811B81AA81D1
S11334D0B981CE0FD11D0FB6F894DEBF0FBECDBF9C
S11334E0ED010895DC0101C06D9341505040E0F7B7
S10734F00895FFCF69
S11334F40100020101FFFFFFFF010022FFFFFF01A2
S9030000FC
